:03000000020003F8
:0C000300787FE4F6D8FD75811B02004AEE
:10020B00EF1FAC0670011E4C600A7D027CECDCFE1D
:04021B00DDFC80EC9A
:01021F0022BC
:09022D007D9D7F0512010680F79A
:0C0220000A083F065B4F666D7D077F6F8C
:0401C6007C00AF12F8
:1001CA008C168D17AB07EB141392A0EB24FFFFE4F8
:1001DA0034FFC313EF13FF1392A1EFC31324FF924B
:1001EA00A2E517642D4516700575804080087408CD
:1001FA002517F8E6F5807F027E0012020BE4F580EF
:01020A0022D1
:060169008F18AB05AA048B
:10016F007C007D64AF03AE021200B18F197C007D5D
:10017F0064AF03AE021200B17E007F0ACFCDCFCEA7
:10018F00CCCE1200B18F1AAE02AF037C007D0A12E3
:10019F0000B18D1BE519FD7C00AF181201CAE518DF
:1001AF0004FFE51AFD7C001201CAE5182402FFE5E1
:0701BF001BFD7C000201CAD8
:040106008F128D13B4
:10010A00C3E51364809480E513502EF404F5137547
:10011A00F00A12008FF514E51375F00A12008F85A4
:10012A00F0157D2D1201C6E51204FFE514FD7C00D1
:10013A001201CAE5122402801C75F00A12008FF51A
:10014A0014E51375F00A12008F85F015E514FD12F7
:0E015A0001C6E51204FFE515FD7C001201CA86
:010168002274
:10000F0002022DE493A3F8E493A34003F68001F2D8
:10001F0008DFF48029E493A3F85407240CC8C333F2
:10002F00C4540F4420C8834004F456800146F6DFC1
:10003F00E4800B0102040810204080900220E47E2F
:10004F00019360BCA3FF543F30E509541FFEE493B6
:10005F00A360010ECF54C025E060A840B8E493A37D
:10006F00FAE493A3F8E493A3C8C582C8CAC583CAA8
:10007F00F0A3C8C582C8CAC583CADFE9DEE780BE60
:01022C0000D1
:10008F00C2D530F707B2D563F0FF05F030E70CB2F9
:10009F00D5F4048463F0FF05F080018430D502F4B9
:0200AF00042229
:1000B100BC000BBE0029EF8DF084FFADF022E4CC33
:1000C100F875F008EF2FFFEE33FEEC33FCEE9DECFC
:1000D100984005FCEE9DFE0FD5F0E9E4CEFD22ED42
:1000E100F8F5F0EE8420D21CFEADF075F008EF2F8C
:1000F100FFED33FD4007985006D5F0F222C398FD7D
:050101000FD5F0EA2219
:00000001FF
