:030000000200AE4D
:0C00AE00787FE4F6D8FD75810A0200F5A9
:03000300010907E9
:10013A001201C312000EE50A60F914B4080050F364
:10014A0090015875F003A4C58325F0C58373020195
:10015A007002017502017A02017F0201840201899B
:10016A0002018E02019375090780C875090A80C3C6
:10017A0075090D80BE75090F80B975091280B475AD
:0E018A00091580AF75091880AA75091B80A59C
:03000B0002019857
:06019800C0E0C0F0C0D081
:10019E00758A9C758CFF0508E50875F0C88485F096
:0E01AE0008E508C395095004D2A28002C2A23F
:0701BC00D0D0D0F0D0E032FA
:1001C300D2AFD2A95389F0438901758A9C758CFFFC
:0501D300C28DD28C2258
:10000E00E4F50A7590FF20900F7F0AFE1201D820AA
:10001E009003750A013090FD2091107F0A7E001228
:10002E0001D8209103750A023091FD2092107F0AAB
:10003E007E001201D8209203750A033092FD2093A0
:10004E00107F0A7E001201D8209303750A043093A4
:10005E00FD2094107F0A7E001201D8209403750AA9
:10006E00053094FD2095107F0A7E001201D8209550
:10007E0003750A063095FD2096107F0A7E00120148
:10008E00D8209603750A073096FD2097107F0A7EBA
:10009E00001201D8209703750A083097FDAF0A2287
:1001D800EF1FAC0670011E4C600A7D027CECDCFE51
:0401E800DDFC80ECCE
:0101EC0022F0
:1000BA0002013AE493A3F8E493A34003F68001F221
:1000CA0008DFF48029E493A3F85407240CC8C33347
:1000DA00C4540F4420C8834004F456800146F6DF16
:1000EA00E4800B0102040810204080900003E47EA3
:1000FA00019360BCA3FF543F30E509541FFEE4930B
:10010A00A360010ECF54C025E060A840B8E493A3D1
:10011A00FAE493A3F8E493A3C8C582C8CAC583CAFC
:10012A00F0A3C8C582C8CAC583CADFE9DEE780BEB4
:0100060000F9
:00000001FF
