:03000000020143B7
:0C014300787FE4F6D8FD75812102018A66
:10036500EF1FAC0670011E4C600A7D027CECDCFEC2
:04037500DDFC80EC3F
:010379002261
:0C03B200011400041500000000011900F7
:0603F2001203E10203BF4B
:0300030002000EEA
:10000E00C0E0C0F0C083C082C0D075D000C000C0B8
:0D001E0001C002C003C004C005C006C00739
:10002B00E5191460131460522402600302012812B4
:10003B0003EA7519010201281203CC8E128F13D318
:10004B00E51394C8E51294324013E51394B0E5120E
:10005B00943650097519021203EA020128D3E513ED
:10006B0094FEE5129429400FE51394E6E512942DC6
:10007B005005D2010201250201251203CC8E128FED
:10008B00131203EAD3E513946CE5129402402CE5AA
:10009B00139454E51294065022E514131313541FB2
:1000AB002415F8C000E6FFE5145407FE7401A806FA
:1000BB00088002C333D8FCF45F8034D3E51394D6A5
:1000CB00E51294064030E51394BEE512940A5026CF
:1000DB00E514131313541F2415F8C000E6FFE514A1
:1000EB005407FE7401A806088002C333D8FC4FD016
:1000FB0000F605148006751400751900E514C394F9
:10010B0020401AE516F4B5150EE518F4B51708D20C
:0D011B000185151B85171A75140075190054
:10012800D007D006D005D004D003D002D001D0002B
:0B013800D0D0D082D083D0F0D0E032D5
:03000B00020006EA
:03000600C28C3277
:0903E100D2AFD2A8D288C2892251
:10038E00C2A6C2A58F80D2A77F037E00120365C2CC
:02039E00A72294
:1003A000D2A6C2A58F80D2A77F037E00120365C2AA
:0203B000A72282
:10037A007F0112038E7F3812038E7F0612038E7F4F
:04038A000C02038ED0
:100346008F108D11E510B40108E511247FFF12030B
:0F0356008EE510B40208E51124BFFF12038E22BA
:060320008B1C8A1D891EE2
:10032600120346E4F51FAB1CAA1DA91E851F827584
:0F0336008300120257FF60071203A0051F80E724
:010345002295
:0401CF008A098B0A04
:1001D300120346AE09AF0A7C277D101202848F0CEE
:1001E300AE09AF0A7C277D101202847E037FE8CF1D
:1001F300CDCFCECCCE1202848F0DAE09AF0A7C03D5
:100203007DE81202847E007F64CFCDCFCECCCE12A8
:1002130002848F0EAE09AF0A7C007D641202847ED5
:10022300007F0ACFCDCFCECCCE1202848F0FAE0982
:10023300AF0A7C007D0A1202848D10E4F50B740C66
:10024300250BF8E62430FF1203A0050BE50BD3942E
:030253000440EB79
:010256002285
:0A03D7008B21120346AF210203A0A0
:1002D90075080A1203F212037A200003300112E5AD
:1002E9001AB440021508E51AB443020508C201C24E
:1002F90000E51BFB7A007D017F011201CFE51AFBA6
:100309007A007D087F011201CFE508FB7A007D01A3
:070319007F021201CF80C238
:0D03BF00D2AFD2A95389F0438901C28D222B
:0803EA00E4F58AF58CD28C22A7
:0A03CC00C28CAF8CEFFEAD8AEDFF8E
:0103D6002204
:10014F000202D9E493A3F8E493A34003F68001F2EB
:10015F0008DFF48029E493A3F85407240CC8C333B1
:10016F00C4540F4420C8834004F456800146F6DF80
:10017F00E4800B01020408102040809003B2E47E5B
:10018F00019360BCA3FF543F30E509541FFEE49375
:10019F00A360010ECF54C025E060A840B8E493A33C
:1001AF00FAE493A3F8E493A3C8C582C8CAC583CA67
:1001BF00F0A3C8C582C8CAC583CADFE9DEE780BE1F
:0103BE00003E
:10025700BB010CE58229F582E5833AF583E022505C
:1002670006E92582F8E622BBFE06E92582F8E222A6
:0D027700E58229F582E5833AF583E49322C0
:10028400BC000BBE0029EF8DF084FFADF022E4CC5E
:10029400F875F008EF2FFFEE33FEEC33FCEE9DEC27
:1002A400984005FCEE9DFE0FD5F0E9E4CEFD22ED6D
:1002B400F8F5F0EE8420D21CFEADF075F008EF2FB7
:1002C400FFED33FD4007985006D5F0F222C398FDA8
:0502D4000FD5F0EA2245
:00000001FF
