:03000000020729CB
:0C072900787FE4F6D8FD7581200204D82A
:1006B200EF1F70011E144E600A7D027CEEDCFEDD2F
:0306C200FC80EDCC
:0106C5002212
:10055D00E4F51575900FE590640F60627F0A7E00DB
:10056D001206B2E590640F605075900FAF90EF24B6
:10057D00F5601024FE6011146013240770127515B8
:10058D0001800D751502800875150380037515041E
:10059D007590F0AF90EF2450601124E0601124F0BD
:1005AD00601124707013851515800E740480067407
:1005BD00088002740C2515F515E590B4F0FBAF1508
:0105CD00220B
:1006DA00C2A6C2A58F80D2A77F037E001206B2C22D
:0206EA00A72245
:1006EC00D2A6C2A58F80D2A77F037E001206B2C20B
:0206FC00A72233
:1006C6007F011206DA7F381206DA7F061206DA7F13
:0406D6000C0206DA32
:100647008F0F8D10E50FB40108E510247FFF120608
:0F065700DAE50FB40208E51024BFFF1206DA221D
:060621008B088A09890A1A
:10062700120647E4F50BAB08AA09A90A850B8275E0
:0F06370083001202E1FF60071206EC050B80E75B
:010646002291
:04043F008A088B0993
:10044300120647AE08AF097C277D1012030E8F0BEF
:10045300AE08AF097C277D1012030E7E037FE8CF21
:10046300CDCFCECCCE12030E8F0CAE08AF097C03DA
:100473007DE812030E7E007F64CFCDCFCECCCE12AB
:10048300030E8F0DAE08AF097C007D6412030E7E50
:10049300007F0ACFCDCFCECCCE12030E8F0EAE0887
:1004A300AF097C007D0A12030E8D0FE4F50A740B6D
:1004B300250AF8E67007050AE50AB403F1E50AD34D
:1004C30094045010740B250AF8E62430FF1206EC4E
:0404D300050A80E9AD
:0104D7002202
:0A0735008B08120647AF080206EC1D
:0D070F0054656D70657261747572653A0015
:1004D8001206C67BFF7A07790F7D017F011206217C
:1004E8007B2E7D047F0212073512071C1205CE8F62
:1004F800148E138D128C11E4FFFEFDFCAB14AA13AD
:10050800A912A8111201A950047B2D80027B2B7D12
:10051800017F02120735AF14AE13AD12AC111202EF
:1005280060AB07AA067D027F0212043F7F007E406F
:100538007D1C7C46AB14AA13A912A8111200031241
:100548000260E47B107A27F9F812039F7D057F0289
:0505580012043F809435
:0D071C001206827FCC1205FA7F440205FA16
:1005CE001206827FCC1205FA7FBE1205FA1206665B
:1005DE008F08120666EFFEE508FFFDAC06EC120270
:0B05EE0027E4FBFA7980784112010C31
:0105F90022DF
:10068200D2A2C2A27FF8DFFED2A27F21DFFEA2A207
:0806920092007F7BDFFEA20055
:01069A00223D
:1006FE00C2A27F03DFFEA20092A27F19DFFED2A26A
:01070E0022C8
:10069B00C2A27F02DFFED2A27F02DFFEA2A29200E5
:0606AB007F19DFFEA20032
:0106B1002226
:0205FA00AD074B
:1005FC00E4FB74017E00A803088005C333CE33CE20
:10060C00D8F9FFEDF582EF558224FF92001206FE19
:04061C000BBB08DE2E
:0106200022B7
:10066600E4FEFD12069B500D7401A805088002C326
:0B06760033D8FC42060DBD08EAAF06B9
:010681002256
:10000300EC4D6011E8497017ED33EC3304600DE4F7
:10001300FCFFFEFD22E933E8330470F80202CC1240
:10002300029758046009E4CC248150062850090241
:1000330002D62840030202D3C0E0EB4A7044B980E1
:1000430006D0E0FB0202C2EF4E701CBD8008EBFF3E
:10005300EAFEE9FD80EBE98DF0A4FEE5F00200EC99
:10006300E9CDF9EAFEEBFFEF89F0A4FCE5F0CE89D8
:10007300F0A42EFFE435F0CD89F0A42DFEE435F095
:100083008067EF4E7005BD80D780C3EF8BF0A4ACC3
:10009300F0EE8BF0A42CFCE435F0F8EF8AF0A42CFE
:1000A300E5F038FCE433CB8DF0A42CFCE5F03BF811
:1000B300EE8AF0A42CFCE5F038F8E433CF89F0A401
:1000C3002CFCE5F038CF3400CE89F0A42FFFE5F007
:1000D3003EFEE433C98DF0A42EFEE5F039CD8AF05F
:1000E300A42FFFE5F03EFEE43DFD33D0E0FB5007D7
:1000F3000BBB000F0202D6EC2CFCEF33FFEE33FEFA
:06010300ED33FD0202AE27
:100109000202D6EC5D046005E8590470030202CCD2
:10011900120297580460F6EC4860F2EC7004FDFE98
:10012900FF22C860DB2481C85009C39860025006C9
:100139000202D39850CAF582E9294B4A7005AB826D
:100149000202C275F0007C1A7880C3EF9BEE9AED2B
:1001590099400DC3EF9BFFEE9AFEED99FDE842F041
:10016900DC23ACF0D0E0FFD0E0FED0E0FDAB822094
:10017900E7101BEB60BAEC2CFCEF33FFEE33FEED1E
:1001890033FD0202AEE803F830E705C0F075F00070
:10019900EF2FFFEE33FEED33FD40B830E7C280AA02
:1001A90074F8CC6480CCC86480C8F58204604FC3FD
:1001B900EB9FF5F0EA9E42F0E99D42F0E89C45F09C
:1001C900603C501DE5825FFFE582D313CB5BCBF426
:1001D9002B5582FB50280ABA002409B9002008804F
:1001E9001DE5825BFBE582D313CF5FCFF4C3132FE9
:1001F9005582FF50090EBE00050DBD00010CC3EB71
:100209009FF5F0EA9E42F0E99D42F0E89C45F060D6
:0902190007CC4820E701B3EC22F8
:1002220075F020800E75F010800575F0087D007E57
:10023200007F003392D530D503120431EC334010E5
:10024200EF33FFEE33FEED33FDEC33FCD5F0ED2260
:0E025200E5F0247EA2D513CC92E7CDCEFF229C
:10026000EDD2E7CD33EC3392D524814006E4FFFE96
:10027000FDFC22FCE4CFCECDCC24E0501174FF80F5
:10028000EDC3CC13CCCD13CDCE13CECF13CF047092
:07029000F030D5DE0204315D
:10029700E9D2E7C933E833F892D5EDD2E7CD33ECAD
:0702A70033FC5002B2D52226
:1002AE00EC30E7100FBF000C0EBE00080DBD0004B1
:1002BE000BEB6014A2D5EB13FCED92E7FD2274FF5D
:1002CE00FCFDFEFF22E480F8A2D574FF13FC7D80B6
:0302DE00E480EFCA
:1002E100BB010CE58229F582E5833AF583E02250D2
:1002F10006E92582F8E622BBFE06E92582F8E2221C
:0D030100E58229F582E5833AF583E4932235
:10030E00BC000BBE0029EF8DF084FFADF022E4CCD3
:10031E00F875F008EF2FFFEE33FEEC33FCEE9DEC9C
:10032E00984005FCEE9DFE0FD5F0E9E4CEFD22EDE2
:10033E00F8F5F0EE8420D21CFEADF075F008EF2F2C
:10034E00FFED33FD4007985006D5F0F222C398FD1D
:05035E000FD5F0EA22BA
:1003630075F008758200EF2FFFEE33FECD33CDCC51
:1003730033CCC58233C5829BED9AEC99E5829840D4
:100383000CF582EE9BFEED9AFDEC99FC0FD5F0D6B1
:10039300E4CEFBE4CDFAE4CCF9A88222B800C1B9DB
:1003A3000059BA002DEC8BF084CFCECDFCE5F0CB19
:1003B300F97818EF2FFFEE33FEED33FDEC33FCEB52
:1003C30033FB10D703994004EB99FB0FD8E5E4F90D
:1003D300FA227818EF2FFFEE33FEED33FDEC33FCFA
:1003E300C933C910D7059BE99A4007EC9BFCE99AEE
:1003F300F90FD8E0E4C9FAE4CCFB2275F010EF2F33
:10040300FFEE33FEED33FDCC33CCC833C810D70732
:100413009BEC9AE899400AED9BFDEC9AFCE899F86D
:0E0423000FD5F0DAE4CDFBE4CCFAE4C8F92200
:0E043100C3E49FFFE49EFEE49DFDE49CFC22DC
:00000001FF
