:030000000200B249
:0C00B200787FE4F6D8FD75810902005942
:10005900120088E4F5097F0A7E0012009D0509D384
:10006900E509648094E440EE750964C3E509648098
:0F007900948040DF7F0A7E0012009D150980EC05
:10008800D2AFD2A95389F0438901758A18758CFCBF
:05009800C28DD28C2294
:03000B0002000EE2
:0F000E00C0E0C0F0C0D075D000C000C006C00771
:10001D00758A9C758CFF0508E50875F0648485F07C
:10002D0008AF09EF3395E0FEC3E5089FEE6480F855
:0F003D007480985006D290C2918004C290D291E4
:0D004C00D007D006D000D0D0D0F0D0E032E8
:10009D00EF1FAC0670011E4C600A7D027CECDCFE8D
:0400AD00DDFC80EC0A
:0100B100222C
:00000001FF
