:0300000002000EED
:0C000E00787FE4F6D8FD758111020055E2
:0501F400C291C290223F
:06009A008F088C098D0A9D
:1000A000E508C394014028E4F974807E00A80108A3
:1000B0008006CEA2E713CE13D8F8FFE5095EFEE571
:1000C0000A5F4E24FF9292D291C29109B908DAE5F3
:1000D00008C394024026E4F974807E00A8010880D9
:1000E00006CEA2E713CE13D8F8FFEE5AFEEF5B4E12
:1000F00024FF9292D291C29109B908DCD290C290A9
:0101000022DC
:1001A7007401A807088002C333D8FCF4FF7C00EF72
:1001B700FB7A00E4F50DF50E7F0212009A7F027EAE
:0401C700000201E051
:10014000C292D291C291C292D291C291C292D291E4
:10015000C291C292D291C291D292D291C291D292C4
:10016000D291C291D292D291C291D292D291C291A5
:05017000D290C29022B4
:1001E000EF1F70011E144E600A7D027CEEDCFEDD06
:0301F000FC80EDA3
:0101F30022E9
:1001010000000000000000007F484C4A310000025E
:100111001515150F0000180505051E00001F100C10
:10012100100F00000E1111110E00001F0810100F0A
:0F01310000000E1111097F000000000000000007
:0301F900011100F1
:080003001201F412014080FE1D
:03000B000201757A
:04017500C0E0C0D056
:10017900758A18758CFC0510E5107002050FD3946B
:1001890050E50F94004012750F007510000511E538
:0901990011D394374003751100E5
:0501A200D0D0D0E032D6
:1001CB00D2AFD2A95389F0438901758A18758CFC7B
:0501DB00C28DD28C2250
:10001A00020003E493A3F8E493A34003F68001F2F9
:10002A0008DFF48029E493A3F85407240CC8C333E7
:10003A00C4540F4420C8834004F456800146F6DFB6
:10004A00E4800B01020408102040809001F9E47E4C
:10005A00019360BCA3FF543F30E509541FFEE493AB
:10006A00A360010ECF54C025E060A840B8E493A372
:10007A00FAE493A3F8E493A3C8C582C8CAC583CA9D
:10008A00F0A3C8C582C8CAC583CADFE9DEE780BE55
:0101FC000002
:00000001FF
