:030000000202AE4B
:0C02AE00787FE4F6D8FD75811702018C02
:10028600EF1F70011E144E600A7D027CC6DCFEDD87
:03029600FC80EDFC
:010299002242
:10023C00C2A6C2A58F807F057E00120286D2A77F40
:09024C00057E00120286C2A72201
:10025500D2A6C2A58F807F057E00120286D2A77F17
:09026500057E00120286C2A722E8
:10029A007F0112023C7F3812023C7F0612023C7F29
:0402AA000C02023C04
:100003008F0F8D10E50FB40108E510247FFF120256
:0F0013003CE50FB40208E51024BFFF12023C22A7
:0601FB008B088A09890A45
:10020100120003E4F50BAB08AA09A90A850B827554
:0F02110083001200BFFF6007120255050B80E744
:0102200022BB
:040026008A118B129E
:10002A00120003AE11AF127C277D101200EC8F1460
:10003A00AE11AF127C277D101200EC7E037FE8CF51
:10004A00CDCFCECCCE1200EC8F15AE11AF127C0301
:10005A007DE81200EC7E007F64CFCDCFCECCCE12ED
:10006A0000EC8F16AE11AF127C007D641200EC7E9C
:10007A00007F0ACFCDCFCECCCE1200EC8F17AE11B7
:10008A00AF127C007D0A1200EC8D18E4F51374148B
:10009A002513F8E670070513E513B403F1E513D346
:1000AA009404501074142513F8E62430FF120255F4
:0400BA00051380E9C1
:0100BE00221F
:0A02BA008B0E120003AF0E02025576
:10026E004C692059756E20210048656C6C6F2057C3
:08027E006F726C6420210A007C
:10018C0012022112029AD2A0D2A17BFF7A02796EBE
:10019C007D017F011201FB20A0167F0A7E00120256
:1001AC008620A0097BFF7A0279771201D330A0FD5B
:1001BC0020A1E47F0A7E0012028620A1057F0A128C
:0701CC0002C420A1D280FB58
:1002210053877F75985053890F438920758BFD75CE
:0B0231008DFDC2ABD28ED2AFD2AC224A
:0302C4008F9922ED
:0300230002014196
:10014100C0E0C0F0C083C082C0D075D000C000C084
:1001510001C002C003C004C005C006C00730990237
:10016100C29930980BAB997D017F021202BAC298F5
:10017100D007D006D005D004D003D002D001D000E2
:0B018100D0D0D082D083D0F0D0E0328C
:0601D3008B088A09890A6D
:1001D900E4F50BAB08AA09A90A850B8275830012FD
:1001E90000BF600DF5997F027E00120286050B8023
:0101F900E223
:0101FA0022E2
:1000BF00BB010CE58229F582E5833AF583E02250F6
:1000CF0006E92582F8E622BBFE06E92582F8E22240
:0D00DF00E58229F582E5833AF583E493225A
:1000EC00BC000BBE0029EF8DF084FFADF022E4CCF8
:1000FC00F875F008EF2FFFEE33FEEC33FCEE9DECC1
:10010C00984005FCEE9DFE0FD5F0E9E4CEFD22ED06
:10011C00F8F5F0EE8420D21CFEADF075F008EF2F50
:10012C00FFED33FD4007985006D5F0F222C398FD41
:05013C000FD5F0EA22DE
:00000001FF
