:030000000200AE4D
:0C00AE00787FE4F6D8FD75811B0200F598
:1001FA00100AC0F9A4B0999282F880908883C6A1A7
:02020A00868EDE
:10013A001201D1E4F509740A251AF8E6F5801200CD
:10014A000EE51B602CB4010E051AD3E51A648094DF
:10015A00834003751A03E51BB4020E151AC3E51A88
:10016A00648094805003E4F51AE51BB40303E4F5B4
:10017A001A740A251AF8E6F580E51A14600F146055
:10018A0011146013240370B6E4F50980B1750932BD
:0C019A0080AC75094B80A775096480A239
:03000B000201A649
:0601A600C0E0C0F0C0D073
:1001AC00758A9C758CFF0508E50875F0648485F0EC
:0E01BC0008E508C395095004D2A28002C2A231
:0701CA00D0D0D0F0D0E032EC
:1001D100D2AFD2A95389F0438901758A9C758CFFEE
:0501E100C28DD28C224A
:10000E00E4F51B7590FF20900F7F0AFE1201E6208B
:10001E009003751B013090FD2091107F0A7E001217
:10002E0001E6209103751B023091FD2092107F0A8C
:10003E007E001201E6209203751B033092FD209381
:10004E00107F0A7E001201E6209303751B04309385
:10005E00FD2094107F0A7E001201E6209403751B8A
:10006E00053094FD2095107F0A7E001201E6209542
:10007E0003751B063095FD2096107F0A7E00120137
:10008E00E6209603751B073096FD2097107F0A7E9B
:10009E00001201E6209703751B083097FDAF1B2257
:1001E600EF1F70011E144E600A7D027CEEDCFEDD00
:0301F600FC80ED9D
:0101F90022E3
:1000BA0002013AE493A3F8E493A34003F68001F221
:1000CA0008DFF48029E493A3F85407240CC8C33347
:1000DA00C4540F4420C8834004F456800146F6DF16
:1000EA00E4800B01020408102040809001FAE47EAB
:1000FA00019360BCA3FF543F30E509541FFEE4930B
:10010A00A360010ECF54C025E060A840B8E493A3D1
:10011A00FAE493A3F8E493A3C8C582C8CAC583CAFC
:10012A00F0A3C8C582C8CAC583CADFE9DEE780BEB4
:01020C0000F1
:00000001FF
