:030000000200AE4D
:0C00AE00787FE4F6D8FD7581530200F560
:05026A00C291C29022C8
:0A0003008C4E8D4F8A508B51A907D7
:10000D00E4FD74807E00A805088006CEA2E713CE1D
:10001D0013D8F8FFE5525EFEE5535F4E24FF929232
:10002D00D291C2910DBD08DAE4FD74807E00A80561
:10003D00088006CEA2E713CE13D8F8FFE5505EFE7A
:10004D00E5515F4E24FF9292D291C2910DBD08DA17
:10005D00E4FD74807E00A805088006CEA2E713CECD
:10006D0013D8F8FFE54E5EFEE54F5F4E24FF9292EA
:10007D00D291C2910DBD08DAE4FD74807E00A80511
:10008D00088006CEA2E713CE13D8F8FFE9FBEF5B8D
:10009D0024FF9292D291C2910DBD08DED290C290F2
:0100AD002230
:1001AB00EFD394085013EF14FE7401A806088002D5
:1001BB00C333D8FCF54BE4F54CEFD39408401AEF5E
:1001CB00D394105014EF24F7FF7401A80708800292
:1001DB00C333D8FCF54CE4F54BAF05AD03AC02E5EE
:0E01EB004BFB7A00E54C755200F55302000301
:10024000EF1FAC0670011E4C600A7D027CEEDCFEE6
:04025000DDFC80EC65
:010254002287
:1001F900202008FFFFF0F7F6D5E7F7F7E7D5F6F780
:10020900F0FFFFFFFF07F7F3B7D7B7B7D7B7F3F794
:1002190007FFFF202028FFFFF0F7F6D5E7F7F7E7FC
:10022900D5F6F7F0FFFFFFFF07F7F3F7B7D7D7B713
:06023900F7F3F707FFFFD9
:10013A0075480175490112026AE54964017025751D
:10014A00480174072548F8E6FD7C0074172548F82D
:10015A00E6FB7A00AF481201AB0548E548D3941094
:10016A0040E0802375480174272548F8E6FD7C00A5
:10017A0074372548F8E6FB7A00AF481201AB054808
:10018A00E548D3941040E0054AE54AD3941440A9BF
:10019A00E4F54A0549E549D39402409D7549018031
:0101AA0098BC
:10025500D2AFD2A95389F0438901758A18758CFCF0
:05026500C28DD28C22C5
:1000BA0002013AE493A3F8E493A34003F68001F221
:1000CA0008DFF48029E493A3F85407240CC8C33347
:1000DA00C4540F4420C8834004F456800146F6DF16
:1000EA00E4800B01020408102040809001F9E47EAC
:1000FA00019360BCA3FF543F30E509541FFEE4930B
:10010A00A360010ECF54C025E060A840B8E493A3D1
:10011A00FAE493A3F8E493A3C8C582C8CAC583CAFC
:10012A00F0A3C8C582C8CAC583CADFE9DEE780BEB4
:01023F0000BE
:00000001FF
