:03000000020141B9
:0C014100787FE4F6D8FD7581090200AD5E
:10000E000000F88CF8F3F95BF9B8FA15FA67FAB94B
:10001E00FB04FB4BFB90FBCFFC10FC44FC79FCACCF
:10002E00FCDCFD09FD34FD5CFD82FDA6FDC8FDE88E
:10003E00FE06FE22FE3DFE56FE6EFE85FE9AFEAECC
:10004E00FEC1FED3FEE4FEF4FF030D040D04140402
:10005E0014041604160414081204120411041104D4
:10006E000F040F040D0814041404120412041104D6
:10007E0011040F08140414041204120411041104C0
:10008E000F080D040D0414041404160416041408A9
:0F009E0012041204110411040F040F040D08FFC3
:1000AD00120118E50990005893F5080509E5099323
:1000BD0075F07DA424FBFFE5F034FFFE12012D0544
:1000CD0009C28C7F057E0012012DD28CE5099000AE
:0900DD005893B4FFCEC28C80FEE2
:03000B000200E60A
:1000E600C0E0C083C082C0D075D000C006E5082538
:1000F600E0240EF582E43400F583E493FE74019364
:10010600F58AEEF58CB2A4D006D0D0D082D083D0BA
:02011600E032D5
:10011800D2AFD2A95389F0438901758A18758CFC2E
:05012800C28DD28C2203
:10012D00EF1F70011E144E600A7D027CEEDCFEDDB9
:03013D00FC80ED56
:01014000229C
:00000001FF
