:02041B0080FE61
:10039B00EF1FAC0670011E4C600A7D027CECDCFE8C
:0403AB00DDFC80EC09
:0103AF00222B
:1003D900C2A6C2A58F80D2A77F037E0012039BC24B
:0203E900A72249
:1003EB00D2A6C2A58F80D2A77F037E0012039BC229
:0203FB00A72237
:1003C5007F011203D97F381203D97F061203D97F23
:0403D5000C0203D93A
:100003008F2C8D2DE52CB40108E52D247FFF1203E1
:0F001300D9E52CB40208E52D24BFFF1203D92232
:06035A008B238A24892593
:10036000120003E4F526AB23AA24A925852682756D
:0F0370008300120026FF60071203EB052680E7CB
:01037F00225B
:040185008A0A8B0B4C
:10018900120003AE0AAF0B7C277D101200538F12A9
:10019900AE0AAF0B7C277D101200537E037FE8CF98
:1001A900CDCFCECCCE1200538F11AE0AAF0B7C034C
:1001B9007DE81200537E007F64CFCDCFCECCCE1226
:1001C90000538F10AE0AAF0B7C007D641200537E82
:1001D900007F0ACFCDCFCECCCE1200538F0FAE0AFF
:1001E900AF0B7C007D0A1200538D0E850C0DE50DB9
:1001F900D394004010740D250DF8E62430FF120346
:05020900EB150D80E97A
:01020E0022CD
:0A0409008B2B120003AF2B0203EB54
:0400DE008A148B15E0
:1000E200120003C3E5146480948050147B2D7D02BA
:1000F2007F02120409C3E49515F515E49514F5146D
:10010200AE14AF157C277D101200A88F1CAE14AF61
:10011200157C277D101200A87E037FE8CFCDCFCEBD
:10012200CCCE1200A88F1BAE14AF157C037DE81253
:1001320000A87E007F64CFCDCFCECCCE1200A88F98
:100142001AAE14AF157C007D641200A87E007F0AEF
:10015200CFCDCFCECCCE1200A88F19AE14AF157C66
:10016200007D0A1200A88D18851617E517D3940092
:10017200401074172517F8E62430FF1203EB151709
:0201820080E912
:010184002258
:10020F00E4F52E75900FE590640F60627F0A7E0013
:10021F0012039BE590640F605075900FAF90EF2421
:10022F00F5601024FE601114601324077012752EF0
:10023F0001800D752E028008752E038003752E0424
:10024F007590F0AF90EF2450601124E0601124F00E
:10025F00601124707013852E2E800E740480067426
:10026F00088002740C252EF52EE590B4F0FBAF2E0E
:01027F00225C
:1003B000D2AFD2A95389F0438901758A18758CFC94
:0503C000C28DD28C2269
:1003800043878075985053890F438920758BF37587
:0B0390008DF3C2ABD28ED2AFD2AC22F4
:030418008F992297
:030023000202E7EF
:1002E700C0E0C0F0C083C082C0D075D000C000C0DD
:1002F70001C002C003C004C005C006C00730990290
:10030700C29930980BAB997D017F02120409C298FC
:10031700D007D006D005D004D003D002D001D0003A
:0B032700D0D0D082D083D0F0D0E032E4
:060332008B278A288929AF
:10033800E4F52AAB27AA28A929852A827583001201
:100348000026600DF5997F047E0012039B052A8024
:01035800E2C2
:010359002281
:05041300C291C290221D
:060280008F1C8C1D8D1E79
:10028600E51CC394014028E4F974807E00A80108A7
:100296008006CEA2E713CE13D8F8FFE51D5EFEE575
:1002A6001E5F4E24FF9292D291C29109B908DAE5F7
:1002B6001CC394024026E4F974807E00A8010880DD
:1002C60006CEA2E713CE13D8F8FFEE5AFEEF5B4E2A
:1002D60024FF9292D291C29109B908DCD290C290C1
:0102E60022F5
:030000000203FDFB
:0C03FD00787FE4F6D8FD75812E02041B09
:10002600BB010CE58229F582E5833AF583E022508F
:1000360006E92582F8E622BBFE06E92582F8E222D9
:0D004600E58229F582E5833AF583E49322F3
:10005300BC000BBE0029EF8DF084FFADF022E4CC91
:10006300F875F008EF2FFFEE33FEEC33FCEE9DEC5A
:10007300984005FCEE9DFE0FD5F0E9E4CEFD22EDA0
:10008300F8F5F0EE8420D21CFEADF075F008EF2FEA
:10009300FFED33FD4007985006D5F0F222C398FDDB
:0500A3000FD5F0EA2278
:1000A800C2D5EC30E709B2D5E4C39DFDE49CFCEE73
:1000B80030E715B2D5E4C39FFFE49EFE120053C398
:1000C800E49DFDE49CFC800312005330D507C3E493
:0600D8009FFFE49EFE22E2
:00000001FF
