:0300000002027584
:0C027500787FE4F6D8FD75811602017D4B
:10021900EF1FAC0670011E4C600A7D027CECDCFE0F
:04022900DDFC80EC8C
:01022D0022AE
:10024200C2A6C2A58F80D2A77F037E00120219C266
:02025200A722E1
:10025400D2A6C2A58F80D2A77F037E00120219C244
:02026400A722CF
:10022E007F011202427F381202427F061202427F83
:04023E000C0202426A
:1001FA008F128D13E512B40108E513247FFF120252
:0F020A0042E512B40208E51324BFFF120242229C
:0601D4008B088A09890A6C
:1001DA001201FAE4F50BAB08AA09A90A850B827584
:0F01EA00830012008DFF6007120254050B80E79F
:0101F90022E3
:040003008A0A8B0BCF
:100007001201FAAE0AAF0B7C277D101200BA8F12CD
:10001700AE0AAF0B7C277D101200BA7E037FE8CFB4
:10002700CDCFCECCCE1200BA8F11AE0AAF0B7C0368
:100037007DE81200BA7E007F64CFCDCFCECCCE1242
:1000470000BA8F10AE0AAF0B7C007D641200BA7E37
:10005700007F0ACFCDCFCECCCE1200BA8F0FAE0A1B
:10006700AF0B7C007D0A1200BA8D0E850C0DE50DD5
:10007700D394004010740D250DF8E62430FF1202CA
:0500870054150D80E995
:01008C002251
:0A0281008B161201FAAF16020254A8
:0F02660041444A2020204E54432020205247007C
:10017D0012022E7BFF7A0279667D017F011201D476
:10018D007F9C12010F8E148F15750C03AB15AA14DD
:10019D007D017F021200037FDC12010F8E148F157B
:1001AD00750C03AB15AA147D077F021200037FACFB
:1001BD0012010F8E148F15750C03AB15AA147D0D3E
:0701CD007F0212000380B95C
:02010F00AD073A
:10011100E4F508F509C2A0C2A1FB74807E00A80322
:10012100088006CEA2E713CE13D8F8FFEDF582EFD3
:10013100558224FF92A2D2A0C2A00BBB08DCE4FB33
:10014100D2A0C2A030A314E47E80A803088005CE0B
:10015100C313CE13D8F94209EE42080BBB10E1D20A
:10016100A1ED30E306E508FF7E0022E508C4F8545E
:0B017100F0C868FEE509C4540F48FF09
:01017C002260
:10008D00BB010CE58229F582E5833AF583E0225028
:10009D0006E92582F8E622BBFE06E92582F8E22272
:0D00AD00E58229F582E5833AF583E493228C
:1000BA00BC000BBE0029EF8DF084FFADF022E4CC2A
:1000CA00F875F008EF2FFFEE33FEEC33FCEE9DECF3
:1000DA00984005FCEE9DFE0FD5F0E9E4CEFD22ED39
:1000EA00F8F5F0EE8420D21CFEADF075F008EF2F83
:1000FA00FFED33FD4007985006D5F0F222C398FD74
:05010A000FD5F0EA2210
:00000001FF
