:03000000020928CA
:0C092800787FE4F6D8FD75812002087984
:10090A0048656C6C6F20576F726C6420212121201E
:01091A0000DC
:1008790012062B1207757B417A007D017C007F05EA
:100889001207B41207207BFF7A09790A7D077C00D9
:07089900E4FF1206B280FE2D
:100003000000000000000000002F000000000700B7
:10001300070000147F147F1400242A7F2A12006231
:1000230064081323003649552250000005030000DD
:1000330000001C224100000041221C000014083E65
:1000430008140008083E0808000000A0600000082B
:10005300080808080000606000000020100804027F
:10006300003E5149453E0000427F4000004261513D
:100073004946002141454B31001814127F100027D7
:1000830045454539003C4A4949300001710905039A
:1000930000364949493600064949291E00003636CB
:1000A300000000005636000000081422410000142E
:1000B300141414140000412214080002015109060B
:1000C30000324959513E007C1211127C007F49498C
:1000D3004936003E41414122007F4141221C007FBD
:1000E30049494941007F09090901003E4149497ACB
:1000F300007F0808087F0000417F41000020404145
:100103003F01007F08142241007F40404040007FB0
:10011300020C027F007F0408107F003E4141413EF4
:10012300007F09090906003E4151215E007F09193C
:1001330029460046494949310001017F0101003F39
:100143004040403F001F2040201F003F4038403FB9
:10015300006314081463000708700807006151491D
:10016300454300007F41410000552A552A550000B0
:1001730041417F000004020102040040404040402E
:10018300000001020400002054545478007F4844C6
:10019300443800384444442000384444487F0038FD
:1001A3005454541800087E0901020018A4A4A47C26
:1001B300007F080404780000447D400000408084F0
:1001C3007D00007F102844000000417F4000007C38
:1001D30004180478007C0804047800384444443844
:1001E30000FC242424180018242418FC007C080490
:1001F300040800485454542000043F444020003C69
:100203004040207C001C2040201C003C4030403CEF
:10021300004428102844001CA0A0A07C004464547F
:100223004C441414141414140000000000000000C3
:1002330000000000000000000000000000000000BB
:1002430000000000000000000000C0C0C0C0C0C02B
:10025300E0E0E0E0E0E0E0E0E0E0F0F0F87878789B
:10026300383838387C7CFFFFFF1F07070303075F1D
:10027300FFFFFF7F78787070F0F0F0E0E0E0C0C03F
:10028300C0C0C080000000000000000000000000AB
:10029300000000000000000000000000000000005B
:1002A300000000000000000000000000000000004B
:1002B300000000000000000000000000000000003B
:1002C300E0E0FCFCFCFC3F3F1F1F0707070703039D
:1002D300030301010101010100000000000000000F
:1002E300000000000000F1FF010000000000C0F169
:1002F300FF3F0100000000000000000000010101B9
:10030300030303070F1F1F3F7C7CFCFCF0F000007E
:1003130000000000000000000000000000000000DA
:1003230000000000000000000000000000000000CA
:10033300000000000000000000C0E0F0F87C3C1C5E
:100343001F3FFFFFFF3F0C00C0F0F87838181C1C5C
:100353001C1C1C1C1E1E1E1E3E3C3C7C7CF8F0E03C
:10036300C0C0808000003FFFFFFCF8381C0EC7E1CF
:10037300F07038383818181818181818181818186A
:100383001818383878F0F0E0E0800103FFFFFFFE33
:10039300FCF8C0C0C0000000000000000000000026
:1003A300000000000000000000000000000000004A
:1003B300000000000000000000070F0F7F7E787828
:1003C300F0E0F0FFFFFFF8E0C18F9FFCF87878784A
:1003D300F8F0F0F030703030307070303070707989
:1003E3003F3F3F0700000007030110187E7FFFE136
:1003F300C080808080808080808080C0C0C0E060BA
:100403007070783C1C1C0FCFC7E3F0F8FC0F078714
:10041300C3E3773F3F0F000000000000000000002F
:1004230000000000000000000000000000000000C9
:1004330000000000000000000000000000000000B9
:1004430001010FFFFFFFDF9F8F8F1F39387870780F
:10045300FEFFFFFFFCFCF8F8C08000000000000076
:100463000000000000000000000080808080808089
:100473008181C1C1C1C1C1C1E1E0E0E0E0F0F0F0C0
:10048300707838383E3E3F3F0F0F0F0F03030303CF
:100493000101000000000000000000000000000057
:1004A3000000000000000000000000000000000049
:1004B3000000000000000000000000000000000039
:1004C300000000071F7FFFFFFFFFEECEC6C6C6C6B4
:1004D3008F878383838787878787870404848486BA
:1004E300868686868687878787830383838383813C
:1004F30083C7EFFFFFF9F9F9F1F3E7EFFFFFFFFF21
:10050300FCF8C0C0808080000000000000000000F4
:1005130000000000000000000000000000000000D8
:1005230000000000000000000000000000000000C8
:1005330000000000000000000000000000000000B8
:100543000080E0E0E0F0F8F87B3B3F3F3F3F7FFF78
:10055300FFDF87838383030383830383838383830C
:100563000303030303030303030303030303030358
:100573000301010101010100018181C1C0E0E0E04B
:1005830063773F3F1F3F7F7FF8F8F8F0E0808000FC
:100593000000000000000000000000000000000058
:1005A3000000000000000000000000000000000048
:1005B3000000000000000000000000000000000038
:1005C3003F3F3F7F7B7B71707070F0F0707030380D
:1005D300393B3F3F1F1F1F0E0F0707070301010191
:1005E3000303030303070706060E0E0E0E1E1C3C31
:1005F3003C3C7C7C7C7EFEFEFFC7E3E1E1E0C0C0C7
:10060300C0C0C0C0C0C0C0C0C0C0C1C3C3C3E7E78F
:10061300FFFEFCFC7C7C00000000000000000000EA
:080623000000000000000000CF
:1008A00090000AEFF01209347F7812084F12091BEA
:1008B000E4FF12084F12091B90000AE0FF12084FD4
:0608C00012091B020946AB
:0F07ED00F583E5822FF582E43583F583E493FFEE
:1007FC00900009EFF01209347F7812084F12091B90
:10080C007F4012084F12091B900009E0FF12084F9D
:06081C0012091B0209464F
:10062B007FAE1208A0E4FF1208A07F101208A07F73
:10063B00401208A07FB01208A07F811208A07FFF94
:10064B001208A07FA11208A07FA61208A07FA812F3
:10065B0008A07F3F1208A07FC81208A07FD3120802
:10066B00A0E4FF1208A07FD51208A07F801208A07B
:10067B007FD81208A07F051208A07FD91208A07F8F
:10068B00F11208A07FDA1208A07F121208A07FDBFC
:10069B001208A07F301208A07F8D1208A07F1412C1
:0706AB0008A07FAF0208A0C8
:1008C600900009EFF0ED24B0FF1208A0900009E0B7
:1008D60054F0C4540F4410FF1208A0900009E054CD
:0508E6000FFF0208A055
:10077500E4900000F0900000E0FFC39408502FEFD4
:1007850024B0FF1208A0E4FF1208A07F101208A0F1
:10079500E4900001F0E4FF1207FC900001E004F092
:0E07A500E0C3948040EF900000E004F080C7B5
:0107B3002223
:0207B400A90793
:1007B600EB24E0900007F0AF011208C6E4900008B1
:1007C600F0900008E0FFC39406501B900007E07508
:1007D600F006A42403F582E5F034001207ED90003C
:0607E60008E004F080DBD6
:0107EC0022EA
:1006B200900003EBF0A3EAF0A3E9F0900000EFF062
:0606C200A3ECF0A3EDF033
:1006C8001208C6E4900006F0900003E0FBA3E0FAED
:1006D800A3E0F9A3E0F582758300120822FE6037D3
:1006E800900000E0FFA3E0FCA3E0FDEEFB7A00121F
:1006F80007B4900000E02408F0E0D394784010E4B8
:10070800F0900002E02402F0900001E03400F09044
:070718000006E004F080B1CF
:01071F0022B7
:10072000E4900000F0900000E0FF131313541FFE4C
:10073000EF54077009EEFD7C00E4FF1208C6E49058
:100740000001F0900001E0FFC39410501B900000E6
:10075000E075F010A4242BF582E5F034021207EDC9
:10076000900001E004F080DB900000E004F0E0C3C2
:04077000944040B1C0
:010774002262
:09093400D2A0D2A1C2A0C2A122EE
:07094600C2A0D2A1D2A02241
:02084F00AD07F3
:10085100E4FB74807E00A803088006CEA2E713CED5
:1008610013D8F8FFEDF582EF558224FF92A0D2A1B3
:07087100C2A10BEBB408DB90
:01087800225D
:1008EB00E4FFD2A0FED2A130A00D7480A806088030
:0E08FB0002C313D8FC4FFFC2A10EEEB408E7F3
:0109090022CB
:09093D00A20092A0D2A1C2A122E5
:0C091B00D2A0D2A1A2A09201C2A1A20110
:0109270022AD
:10082200BB010CE58229F582E5833AF583E022508B
:1008320006E92582F8E622BBFE06E92582F8E222D5
:0D084200E58229F582E5833AF583E49322EF
:00000001FF
