:030000000200A754
:0C00A700787FE4F6D8FD7581150200EEAC
:1002DF00EF1F70011E144E600A7D027CC6DCFEDD2E
:0302EF00FC80EDA3
:0102F20022E9
:10029800C2A6C2A58F807F057E001202DFD2A77F8B
:0902A800057E001202DFC2A7224C
:1002B100D2A6C2A58F807F057E001202DFD2A77F62
:0902C100057E001202DFC2A72233
:1002F3007F011202987F381202987F061202987FBC
:040303000C0202984E
:100279008F0F8D10E50FB40108E510247FFF1202DE
:0F02890098E50FB40208E51024BFFF1202982277
:060253008B088A09890AEC
:10025900120279E4F50BAB08AA09A90A850B827584
:0F0269008300120133FF60071202B1050B80E71B
:010278002263
:04000E008A088B09C8
:10001200120279AE08AF097C277D101201608F0BA6
:10002200AE08AF097C277D101201607E037FE8CF06
:10003200CDCFCECCCE1201608F0CAE08AF097C03BF
:100042007DE81201607E007F64CFCDCFCECCCE1290
:1000520001608F0DAE08AF097C007D641201607EE5
:10006200007F0ACFCDCFCECCCE1201608F0EAE086C
:10007200AF097C007D0A1201608D0FE4F50A740B52
:10008200250AF8E67007050AE50AB403F1E50AD382
:1000920094045010740B250AF8E62430FF1202B1C2
:0400A200050A80E9E2
:0100A6002237
:0A0307008B08120279AF080202B160
:07000300436C6F636B3A00D0
:0903110001143201153B01131522
:1001B5001202CA1202F37BFF7A0079037D017F01E7
:1001C5001202537B3A7D037F021203077B3A7D06B9
:1001D5007F02120307E513FB3395E0FA7D017F02E9
:1001E50012000EE515FB3395E0FA7D047F0212003F
:1001F5000EE514FB3395E0FA7D077F0212000E80B1
:01020500D424
:03000B00020206E8
:04020600C0E0C0D0C4
:10020A00758A18758CFC0512E51270020511C394E3
:10021A00E8E5119403402D7511007512000514E5E7
:10022A0014648094BC401D7514000515E51564809E
:10023A0094BC40107515000513E51364809498402A
:04024A000375130025
:05024E00D0D0D0E03229
:1002CA00D2AFD2A95389F0438901758A18758CFC7B
:0502DA00C28DD28C2250
:1000B3000201B5E493A3F8E493A34003F68001F2AD
:1000C30008DFF48029E493A3F85407240CC8C3334E
:1000D300C4540F4420C8834004F456800146F6DF1D
:1000E300E4800B0102040810204080900311E47E99
:1000F300019360BCA3FF543F30E509541FFEE49312
:10010300A360010ECF54C025E060A840B8E493A3D8
:10011300FAE493A3F8E493A3C8C582C8CAC583CA03
:10012300F0A3C8C582C8CAC583CADFE9DEE780BEBB
:01031A0000E2
:10013300BB010CE58229F582E5833AF583E0225081
:1001430006E92582F8E622BBFE06E92582F8E222CB
:0D015300E58229F582E5833AF583E49322E5
:10016000BC000BBE0029EF8DF084FFADF022E4CC83
:10017000F875F008EF2FFFEE33FEEC33FCEE9DEC4C
:10018000984005FCEE9DFE0FD5F0E9E4CEFD22ED92
:10019000F8F5F0EE8420D21CFEADF075F008EF2FDC
:1001A000FFED33FD4007985006D5F0F222C398FDCD
:0501B0000FD5F0EA226A
:00000001FF
