:0300000002049562
:0C049500787FE4F6D8FD75812502017B1C
:1003DB0050617373576F72643A0057656C636F6D3E
:1003EB006521004572726F722120200006070800FC
:0203FB000102FD
:1003FD00E4F51D12046D7BFF7A0379DB7D017F012E
:0F040D001203B57D0B7F0112041C7F0D02043B0F
:10017B001203FD120344E52560F914B4100040038B
:10018B0002021490019C75F003A4C58325F0C5836E
:10019B00730201CC0201D10201D60202140201DB6F
:1001AB000201E00201E50202140201EA0201EF0280
:1001BB0001F40202110201FE0201F9020205020220
:1001CB000C751C018043751C02803E751C03803925
:1001DB00751C048034751C05802F751C06802A75D0
:1001EB001C078025751C088020751C09801BE4F5F5
:1001FB001C8016151D751C0A800F051D751C0B80A8
:10020B0008751C0C80031203FDE51CD394095023C5
:10021B007416251DF8A61CE51D240BFD7416251D53
:10022B00F8E62430FB7F011204A1E51DC3940550B1
:10023B0002051DE51D240BFD7F0112041CE51C644A
:06024B000C600302017EBD
:10025100F509780A7C00FD7BFF7A0379F7FE7F06BA
:100261001200D3E4F508740A2508F8E6FF74162590
:1002710008F8E66F60037509010508E508B406E6AC
:10028100E509700D7BFF7A0379E57D017F02120399
:10029100B5E5096401600302017E7BFF7A0379EE13
:0702A1007D017F021203B58D
:0302A80002017ED2
:10043B00C2A6C2A58F807F057E00120481D2A77F42
:09044B00057E00120481C2A72203
:10045400D2A6C2A58F807F057E00120481D2A77F19
:09046400057E00120481C2A722EA
:10046D007F0112043B7F3812043B7F0612043B7F51
:04047D000C02043B2E
:10041C008F148D15E514B40108E515247FFF120423
:0F042C003BE514B40208E51524BFFF12043B2280
:0603B5008B108A11891271
:1003BB0012041CE4F513AB10AA11A9128513827554
:0F03CB0083001200F9FF6007120454051380E746
:0103DA002200
:0402AB008A1E8B1FFD
:1002AF0012041CAE1EAF1F7C277D101201268F215A
:1002BF00AE1EAF1F7C277D101201267E037FE8CF75
:1002CF00CDCFCECCCE1201268F22AE1EAF1F7C0318
:1002DF007DE81201267E007F64CFCDCFCECCCE122B
:1002EF0001268F23AE1EAF1F7C007D641201267E78
:1002FF00007F0ACFCDCFCECCCE1201268F24AE1EDB
:10030F00AF1F7C007D0A1201268D25E4F520742194
:10031F002520F8E670070520E520B405F1E520D388
:10032F009404501074212520F8E62430FF12045451
:04033F00052080E92C
:010343002297
:0A04A1008B1012041CAF100204546B
:10034400E4F52575900FE590640F60627F0A7E00E6
:10035400120481E590640F605075900FAF90EF2404
:10036400F5601024FE6011146013240770127525C3
:1003740001800D7525028008752503800375250409
:100384007590F0AF90EF2450601124E0601124F0D8
:10039400601124707013852525800E740480067402
:1003A400088002740C2525F525E590B4F0FBAF25F3
:0103B4002226
:10048100EF1F70011E144E600A7D027CC6DCFEDD8A
:03049100FC80EDFF
:010494002245
:10000300E709F608DFFA8046E709F208DFFA803EDF
:1000130088828C83E709F0A3DFFA8032E309F608CC
:10002300DFFA8078E309F208DFFA807088828C8334
:10003300E309F0A3DFFA806489828A83E0A3F608E8
:10004300DFFA805889828A83E0A3F208DFFA804CC2
:1000530080D280FA80C680D4806980F28033801099
:1000630080A680EA809A80A880DA80E280CA803302
:1000730089828A83ECFAE493A3C8C582C8CCC5837A
:10008300CCF0A3C8C582C8CCC583CCDFE9DEE7804A
:100093000D89828A83E493A3F608DFF9ECFAA9F0C9
:1000A300EDFB2289828A83ECFAE0A3C8C582C8CC1F
:1000B300C583CCF0A3C8C582C8CCC583CCDFEADE38
:1000C300E880DB89828A83E493A3F208DFF980CC9A
:1000D30088F0EF60010E4E60C388F0ED2402B40493
:1000E3000050B9F582EB2402B4040050AF2323453A
:0600F3008223900053730C
:1000F900BB010CE58229F582E5833AF583E02250BC
:1001090006E92582F8E622BBFE06E92582F8E22205
:0D011900E58229F582E5833AF583E493221F
:10012600BC000BBE0029EF8DF084FFADF022E4CCBD
:10013600F875F008EF2FFFEE33FEEC33FCEE9DEC86
:10014600984005FCEE9DFE0FD5F0E9E4CEFD22EDCC
:10015600F8F5F0EE8420D21CFEADF075F008EF2F16
:10016600FFED33FD4007985006D5F0F222C398FD07
:050176000FD5F0EA22A4
:00000001FF
