:030000000203EA0E
:0C03EA00787FE4F6D8FD75812002000346
:10039100EF1F70011E144E600A7D027CEEDCFEDD53
:0303A100FC80EDF0
:0103A4002236
:1003B900C2A6C2A58F80D2A77F037E00120391C275
:0203C900A72269
:1003CB00D2A6C2A58F80D2A77F037E00120391C253
:0203DB00A72257
:1003A5007F011203B97F381203B97F061203B97FA3
:0403B5000C0203B97A
:100354008F0F8D10E50FB40108E510247FFF120301
:0F036400B9E50FB40208E51024BFFF1203B92258
:0602E4008B088A09890A5B
:1002EA00120354E4F50BAB08AA09A90A850B827517
:0F02FA008300120209FF60071203CB050B80E798
:0103090022D1
:040181008A088B0954
:10018500120354AE08AF097C277D101202368F0B7F
:10019500AE08AF097C277D101202367E037FE8CFBB
:1001A500CDCFCECCCE1202368F0CAE08AF097C0374
:1001B5007DE81202367E007F64CFCDCFCECCCE1245
:1001C50002368F0DAE08AF097C007D641202367EC3
:1001D500007F0ACFCDCFCECCCE1202368F0EAE0821
:1001E500AF097C007D0A1202368D0FE4F50A740B07
:1001F500250AF8E62430FF1203CB050AE50AD39455
:030205000440EBC7
:0102080022D3
:0A03F6008B13120354AF130203CB64
:10030A005772697465204F4B21002020202020203D
:10031A002020200052656164204F4B2100202020BC
:06032A002020202020002D
:100003001203A5AB12AA117D017F01120181120017
:10001300E1E51460F9B401120512E512700205114D
:10002300FBAA117D017F01120181E514B40213E5DE
:1000330012151270021511AB12AA117D017F011264
:100043000181E51464037042E511FD7C00E4FF12B5
:1000530003307F057E001203917C00AD127F0112F5
:1000630003307F057E001203917BFF7A03790A7DBB
:10007300017F021202E47FE87E031203917BFF7A81
:100083000379147D017F021202E4E5146404600322
:10009300020011FF12028B7511008F127F011202F1
:1000A3008BEFFD7C00E512FEE42DF512EC3EF5111D
:1000B300AB12FA7D017F011201817BFF7A03791E66
:1000C3007D017F021202E47FE87E031203917BFF2E
:0E00D3007A0379277D017F021202E4020011F8
:09040000D2A0D2A1C2A0C2A12227
:07041200C2A0D2A1D2A0227A
:0202BB00AD078D
:1002BD00E4FB74807E00A803088006CEA2E713CE6F
:1002CD0013D8F8FFEDF582EF558224FF92A0D2A14D
:0602DD00C2A10BBB08DC0E
:0102E30022F8
:10037300E4FFD2A0FED2A130A00D7480A8060880AD
:0D03830002C313D8FC4207C2A10EBE08E859
:01039000224A
:09040900A20092A0D2A1C2A1221E
:0C03DD00D2A0D2A1A2A09200C2A1A20056
:0103E90022F1
:100330008F088C098D0A1204007FA01202BB1203E1
:10034000DDAF081202BB1203DDAF0A1202BB1203BB
:04035000DD020412B4
:02028B008F08DA
:10028D001204007FA01202BB1203DDAF081202BBE5
:10029D001203DD1204007FA11202BB1203DD120353
:0D02AD00738F09D200120409120412AF0968
:0102BA002221
:1000E100E4F5147590FF20900F7F0AFE1203912012
:1000F10090037514013090FD2091107F0A7E00124B
:1001010003912091037514023091FD2092107F0A12
:100111007E001203912092037514033092FD209307
:10012100107F0A7E0012039120930375140430930B
:10013100FD2094107F0A7E00120391209403751410
:10014100053094FD2095107F0A7E001203912095C1
:10015100037514063095FD2096107F0A7E00120368
:10016100912096037514073096FD2097107F0A7E23
:10017100001203912097037514083097FDAF1422E4
:10020900BB010CE58229F582E5833AF583E02250AA
:1002190006E92582F8E622BBFE06E92582F8E222F4
:0D022900E58229F582E5833AF583E493220E
:10023600BC000BBE0029EF8DF084FFADF022E4CCAC
:10024600F875F008EF2FFFEE33FEEC33FCEE9DEC75
:10025600984005FCEE9DFE0FD5F0E9E4CEFD22EDBB
:10026600F8F5F0EE8420D21CFEADF075F008EF2F05
:10027600FFED33FD4007985006D5F0F222C398FDF6
:050286000FD5F0EA2293
:00000001FF
