:03000000020026D5
:0C002600787FE4F6D8FD75810A02006DB9
:03001E00010A03D1
:080170007F237E0DDEFEDFFCA3
:010178002264
:080179007F037E96DEFEDFFC31
:01018100225B
:080182007F047E36DEFEDFFC87
:01018A002252
:08018B007F217E42DEFEDFFC55
:010193002249
:1000B200E4F508F509120003E50A7026C2ACF5085A
:1000C200F509D2A2120182C2A212018B0509E50929
:1000D20070020508C39464E508940040E5750A03BC
:1000E200D2ACE50AB40127C2ACE4F508F509D2A204
:1000F200120179C2A212018B0509E50970020508F5
:10010200C39464E508940040E5750A03D2ACE50A9D
:07011200B403A5C2A280A105
:03002300020119BE
:10011900C0E0C0F0C083C082C0D075D000C000C0AC
:1001290001C002C003C004C005C006C0073099025F
:10013900C299309817C298AF99120194E599B441C0
:1001490003750A01E599B44203750A00D007D00680
:10015900D005D004D003D002D001D000D0D0D082B5
:07016900D083D0F0D0E0329A
:1000030053877F75985053890F438920758BFD75EE
:0B0013008DFDC2ABD28ED2AFD2AC226A
:030194008F99221E
:100032000200B2E493A3F8E493A34003F68001F232
:1000420008DFF48029E493A3F85407240CC8C333CF
:10005200C4540F4420C8834004F456800146F6DF9E
:10006200E4800B010204081020408090001EE47E10
:10007200019360BCA3FF543F30E509541FFEE49393
:10008200A360010ECF54C025E060A840B8E493A35A
:10009200FAE493A3F8E493A3C8C582C8CAC583CA85
:1000A200F0A3C8C582C8CAC583CADFE9DEE780BE3D
:0100210000DE
:00000001FF
