:03000000020E529B
:0C0E5200787FE4F6D8FD758122020E992D
:10124F0048656C6C6F20576F726C642021212120D0
:01125F00008E
:03127F00011F0745
:1011D900120EDE12110812123412000E7BFF7A125F
:0F11E900794FD2007D027C00E4FF120D9680FE4C
:03000B000211657A
:06116500C0E0C0F0C0D0A4
:10116B00758A9C758CFF051EE51E75F0C88485F08D
:0E117B001EE51EC3951F5004D2A28002C2A220
:07118900D0D0D0F0D0E0321D
:0300230002102C9C
:10102C00C0E0C0F0C083C082C0D075D000C000C08A
:10103C0001C002C003C004C005C006C0073099023D
:10104C00C299309817C298AF99121283E599B4419E
:10105C0003751F0FE599B44203751F0BD007D0061B
:10106C00D005D004D003D002D001D000D0D0D08293
:07107C00D083D0F0D0E03278
:1012340053877F75985053890F438920758BFD75AB
:0B1244008DFDC2ABD28ED2AFD2AC2227
:031283008F99221E
:09126D00D2A0D2A1C2A0C2A122AC
:07000300C2A0D2A1D2A0228D
:02119000AD07A9
:10119200E4FB74807E00A803088006CEA2E713CE8B
:1011A20013D8F8FFEDF582EF558224FF92A0D2A169
:0611B200C2A10BBB08DC2A
:0111B8002214
:1011F800E4FFD2A0FED2A130A00D7480A80608801A
:0D12080002C313D8FC4207C2A10EBE08E8C5
:0112150022B6
:09127600A20392A0D2A1C2A122A0
:0C126000D2A0D2A1A2A09202C2A1A202C0
:01126C00225F
:100026000000000000000000000000002F0000009B
:1000360000000007000700000000147F147F140072
:100046000000242A7F2A120000006264081323009D
:10005600000036495522500000000005030000004C
:100066000000001C2241000000000041221C00008C
:10007600000014083E081400000008083E080800A6
:1000860000000000A0600000000008080808080042
:10009600000000606000000000002010080402005C
:1000A60000003E5149453E00000000427F400000EE
:1000B600000042615149460000002141454B310094
:1000C60000001814127F100000002745454539002E
:1000D60000003C4A4949300000000171090503004F
:1000E60000003649494936000000064949291E00E4
:1000F6000000003636000000000000563600000002
:100106000000081422410000000014141414140006
:1001160000000041221408000000020151090600F7
:100126000000324959513E0000007C1211127C0039
:1001360000007F494949360000003E414141220006
:1001460000007F4141221C0000007F4949494100CF
:1001560000007F090909010000003E4149497A0073
:1001660000007F0808087F00000000417F41000072
:1001760000002040413F010000007F08142241009A
:1001860000007F404040400000007F020C027F00DC
:1001960000007F0408107F0000003E4141413E0000
:1001A60000007F090909060000003E4151215E005A
:1001B60000007F09192946000000464949493100D7
:1001C600000001017F01010000003F4040403F0068
:1001D60000001F2040201F0000003F4038403F0025
:1001E6000000631408146300000007087008070085
:1001F60000006151494543000000007F4141000075
:100206000000552A552A550000000041417F000094
:10021600000004020102040000004040404040008B
:10022600000000010204000000002054545478002D
:1002360000007F484444380000003844444420000D
:100246000000384444487F000000385454541800D5
:100256000000087E09010200000018A4A4A47C0086
:1002660000007F0804047800000000447D40000080
:1002760000004080847D000000007F1028440000BC
:10028600000000417F40000000007C041804780054
:1002960000007C0804047800000038444444380018
:1002A6000000FC2424241800000018242418FC0054
:1002B60000007C0804040800000048545454200040
:1002C6000000043F4440200000003C4040207C00E9
:1002D60000001C2040201C0000003C4030403C0038
:1002E600000044281028440000001CA0A0A07C00A8
:1002F60000004464544C44000014141414141400F4
:1003060000000000000000000000000000000000E7
:10031600000000F80000000000000033300000007C
:1003260000100C06100C0600000000000000000083
:1003360040C07840C0784000043F04043F040400F5
:10034600007088FC08300000001820FF211E000005
:10035600F008F000E018000000211C031E211E001A
:1003660000F00888700000001E21232419272110A0
:1003760010160E0000000000000000000000000043
:10038600000000E0180402000000000718204000EA
:1003960000020418E00000000040201807000000DA
:1003A600404080F0804040000202010F010202003E
:1003B600000000F0000000000101011F0101010022
:1003C600000000000000000080B070000000000087
:1003D6000000000000000000000101010101010110
:1003E60000000000000000000030300000000000A7
:1003F600000000008060180400601806010000007C
:1004060000E010080810E000000F102020100F0078
:10041600001010F8000000000020203F20200000FF
:100426000070080808887000003028242221300057
:1004360000300888884830000018202020110E005F
:100446000000C02010F8000000070424243F240008
:1004560000F80888880808000019212020110E00DD
:1004660000E0108888180000000F112020110E00EF
:1004760000380808C83808000000003F00000000E7
:100486000070880808887000001C222121221C00A8
:1004960000E010080810E0000000312222110F00D1
:1004A600000000C0C0000000000000303000000066
:1004B60000000080000000000000806000000000D6
:1004C60000008040201008000001020408102000EF
:1004D600404040404040400004040404040404003A
:1004E60000081020408000000020100804020100CF
:1004F600007048080808F0000000003036010000CF
:10050600C030C828E810E0000718272423140B0081
:100516000000C038E0000000203C230202273820FB
:1005260008F8888888700000203F202020110E00DF
:10053600C0300808080838000718202020100800D6
:1005460008F808080810E000203F202020100F00BF
:1005560008F88888E8081000203F2020232018008B
:1005660008F88888E8081000203F200003000000F3
:10057600C03008080838000007182020221E020094
:1005860008F808000008F808203F210101213F2053
:10059600000808F8080800000020203F202000007E
:1005A60000000808F8080800C08080807F0000006E
:1005B60008F888C028180800203F200126382000A7
:1005C60008F8080000000000203F2020202030000E
:1005D60008F8F800F8F80800203F003F003F200028
:1005E60008F830C00008F808203F200007183F0030
:1005F600E01008080810E0000F10202020100F005F
:1006060008F808080808F000203F21010101000051
:10061600E01008080810E0000F18242438504F0096
:1006260008F8888888887000203F2000030C302056
:1006360000708808080838000038202121221C0094
:10064600180808F8080818000000203F20000000DD
:1006560008F808000008F808001F202020201F00C6
:100666000878880000C83808000007380E01000026
:10067600F80800F80008F800033C0700073C0300F0
:10068600081868808068180820302C03032C302056
:100696000838C800C83808000000203F20000000C5
:1006A60010080808C838080020382621202018001D
:1006B600000000FE020202000000007F40404000F1
:1006C600000C30C000000000000000010638C00029
:1006D60000020202FE000000004040407F000000D1
:1006E60000000402020204000000000000000000F6
:1006F60000000000000000008080808080808080F4
:1007060000020204000000000000000000000000DB
:1007160000008080808000000019242222223F20D1
:1007260008F8008080000000003F112020110E0014
:100736000000008080800000000E112020201100A3
:10074600000000808088F800000E112020103F2055
:100756000000808080800000001F222222221300D9
:10076600008080F0888888180020203F2020000024
:100776000000808080808000006B949494936000D9
:1007860008F8008080800000203F210000203F20E4
:1007960000809898000000000020203F20200000E4
:1007A600000000809898000000C08080807F0000D4
:1007B60008F8000080808000203F24022D302000B1
:1007C600000808F8000000000020203F202000005C
:1007D6008080808080808000203F20003F20003F76
:1007E6008080008080800000203F210000203F2084
:1007F6000000808080800000001F202020201F0035
:10080600808000808000000080FFA12020110E0063
:100816000000008080808000000E112020A0FF8054
:10082600808080008080800020203F212000010001
:100836000000808080808000003324242424190056
:10084600008080E0808000000000001F2020000063
:100856008080000000808000001F202020103F20A4
:10086600808080000080808000010E300806010034
:1008760080800080008080800F300C030C300F00D9
:1008860000808000808080000020312E0E31200004
:10089600808080000080808080818E701806010034
:1008A60000808080808080000021302C2221300052
:1008B60000000000807C020200000000003F404073
:1008C60000000000FF00000000000000FF00000024
:1008D6000002027C800000000040403F0000000053
:1008E60000060101020204040000000000000000EE
:1008F60002FA8282FE8080824E52A6524A8680008A
:1009060008184884443F405E52527F52525EE000CF
:1009160020104C4754545454545454D404040000E6
:1009260000000000000000000000000F3040F00052
:10093600000000E0000000FF0000002040800000F2
:10094600080403000040807F0000000000010E0044
:10095600404042424242C24242424242424040003B
:10096600002070282423202020242830E0000000C6
:100976000002027A4A4A4A4A7A02027E02020000CB
:100986000101013D252525253D41817F010101000C
:100996000000000000000000000000000000000051
:1009A6000000000000000000000000000000000041
:1009B6000000C0C0C0C0C0C0E0E0E0E0E0E0E0E0B1
:1009C600E0E0F0F0F8787878383838387C7CFFFF4B
:1009D600FF1F07070303075FFFFFFF7F787870702D
:1009E600F0F0F0E0E0E0C0C0C0C0C0800000000051
:1009F60000000000000000000000000000000000F1
:100A060000000000000000000000000000000000E0
:100A160000000000000000000000000000000000D0
:100A26000000000000000000E0E0FCFCFCFC3F3F92
:100A36001F1F070707070303030301010101010144
:100A46000000000000000000000000000000F1FFB0
:100A5600010000000000C0F1FF3F0100000000009F
:100A66000000000000010101030303070F1F1F3FE1
:100A76007C7CFCFCF0F000000000000000000000A0
:100A86000000000000000000000000000000000060
:100A96000000000000000000000000000000000050
:100AA60000C0E0F0F87C3C1C1F3FFFFFFF3F0C003E
:100AB600C0F0F87838181C1C1C1C1C1C1E1E1E1EA0
:100AC6003E3C3C7C7CF8F0E0C0C0808000003FFFEC
:100AD600FFFCF8381C0EC7E1F070383838181818C3
:100AE60018181818181818181818383878F0F0E068
:100AF600E0800103FFFFFFFEFCF8C0C0C00000005D
:100B060000000000000000000000000000000000DF
:100B160000000000000000000000000000000000CF
:100B260000070F0F7F7E7878F0E0F0FFFFFFF8E018
:100B3600C18F9FFCF8787878F8F0F0F0307030309C
:100B460030707030307070793F3F3F07000000070B
:100B5600030110187E7FFFE1C08080808080808046
:100B6600808080C0C0C0E0607070783C1C1C0FCFD5
:100B7600C7E3F0F8FC0F0787C3E3773F3F0F00009A
:100B8600000000000000000000000000000000005F
:100B9600000000000000000000000000000000004F
:100BA600000000000000000001010FFFFFFFDF9FB3
:100BB6008F8F1F3938787078FEFFFFFFFCFCF8F83E
:100BC600C0800000000000000000000000000000DF
:100BD60000008080808080808181C1C1C1C1C1C187
:100BE600E1E0E0E0E0F0F0F0707838383E3E3F3F7C
:100BF6000F0F0F0F030303030101000000000000A5
:100C060000000000000000000000000000000000DE
:100C160000000000000000000000000000000000CE
:100C26000000000000000000000000071F7FFFFF1B
:100C3600FFFFEECEC6C6C6C68F87838383878787A8
:100C46008787870404848486868686868687878740
:100C5600878303838383838183C7EFFFFFF9F9F9D2
:100C6600F1F3E7EFFFFFFFFFFCF8C0C080808000D4
:100C7600000000000000000000000000000000006E
:100C8600000000000000000000000000000000005E
:100C9600000000000000000000000000000000004E
:100CA60000000000000000000080E0E0E0F0F8F83E
:100CB6007B3B3F3F3F3F7FFFFFDF8783838303030A
:100CC600838303838383838303030303030303036E
:100CD60003030303030303030301010101010100ED
:100CE600018181C1C0E0E0E063773F3F1F3F7F7F26
:100CF600F8F8F8F0E0808000000000000000000036
:100D060000000000000000000000000000000000DD
:100D160000000000000000000000000000000000CD
:100D260000000000000000003F3F3F7F7B7B7170AA
:100D36007070F0F070703038393B3F3F1F1F1F0E48
:100D46000F07070703010101030303030307070650
:100D5600060E0E0E0E1E1C3C3C3C7C7C7C7EFEFE73
:100D6600FFC7E3E1E1E0C0C0C0C0C0C0C0C0C0C0B2
:100D7600C0C0C1C3C3C3E7E7FFFEFCFC7C7C000028
:100D8600000000000000000000000000000000005D
:1011B9008F1712126D7F78121190121260E4FF12CC
:1011C9001190121260AF17121190121260020003EF
:1010CA0075F010E514A42406F582E5F03403F583DF
:0E10DA00E5822515F582E43583F583E493FF66
:1010E8008F1612126D7F781211901212607F4012C3
:1010F8001190121260AF16121190121260020003C2
:100EDE007FAE1211B9E4FF1211B97F101211B97F52
:100EEE00401211B97FB01211B97F811211B97FFF73
:100EFE001211B97FA11211B97FA61211B97FA812D2
:100F0E0011B97F3F1211B97FC81211B97FD31211D7
:100F1E00B9E4FF1211B97FD51211B97F801211B940
:100F2E007FD81211B97F051211B97FD91211B97F6D
:100F3E00F11211B97FDA1211B97F121211B97FDBDA
:100F4E001211B97F301211B97F8D1211B97F14129F
:070F5E0011B97FAF0211B9C8
:101216008F16ED24B0FF1211B9E51654F0C4540F21
:0E1226004410FF1211B9E516540FFF0211B962
:10110800E4F508E50824B0FF1211B9E4FF1211B99B
:101118007F101211B9E4F509E4FF1210E80509E59A
:0F11280009C3948040F20508E508C3940840D439
:011137002295
:060F65008F118C128D13A8
:100F6B00EB24E0F514200120121216E4F51575F0B0
:100F7B0008E514A42426F582E5F034001210D805F8
:100F8B0015E515C3940840E6300135AD13AC12AF2F
:100F9B0011121216E4F5151210CA0515E515C394B6
:100FAB000840F4E5132401FDE43512FCAF111212D5
:100FBB00167515081210CA0515E515C3941040F4E3
:010FCB002203
:0C0D96008F088C098D0A8B0B8A0C890DCC
:100DA200200060121216E4F50EAB0BAA0CA90D85F9
:100DB2000E82758300121138604924E0F510E4F5C3
:100DC2000F75F008E510A42426F582E5F03400F54D
:100DD20083E582250F1210DE050FE50FC39408404C
:100DE200E074082508F508D394784013E4F5080563
:100DF2000AE50A70020509FDAC09AF0812121605D0
:100E02000E80A6300049E4F50EAB0BAA0CA90D85A5
:100E12000E827583001211386035FB7A00A20092AF
:100E220001AD0AAC09AF08120F6574082508F50870
:100E3200D394784016E4F5087402250AF50AE435DD
:0F0E420009F509AD0AFCAF08121216050E80BAA9
:010E5100227E
:10108300E4F521E521131313541FFFE521540770E1
:1010930009EFFD7C00E4FF121216E4F52275F0104F
:1010A300E521A42496F582E5F03409F583E582254C
:1010B300221210DE0522E522C3941040E00521E54B
:0610C30021C3944040BD72
:0110C9002204
:0A0FCC008F188C198D1A8A1B8B1CDC
:100FD600121216E4F51DE51CC43354E024F6F5821E
:100FE600E43408F583E582251D1210DE051DE51D96
:100FF600C3941040E1E51A2401FDE43519FCAF184D
:10100600121216751D10E51CC43354E024F6F58241
:10101600E43408F583E582251D1210DE051DE51D65
:05102600C3942040E12D
:01102B0022A2
:10000E00D2AFD2A95389F0438901758A9C758CFFB2
:05001E00C28DD28C220E
:100E5E000211D9E493A3F8E493A34003F68001F2C0
:100E6E0008DFF48029E493A3F85407240CC8C33395
:100E7E00C4540F4420C8834004F456800146F6DF64
:100E8E00E4800B010204081020408090127FE47E63
:100E9E00019360BCA3FF543F30E509541FFEE49359
:100EAE00A360010ECF54C025E060A840B8E493A320
:100EBE00FAE493A3F8E493A3C8C582C8CAC583CA4B
:100ECE00F0A3C8C582C8CAC583CADFE9DEE780BE03
:01128200006B
:10113800BB010CE58229F582E5833AF583E022506C
:1011480006E92582F8E622BBFE06E92582F8E222B6
:0D115800E58229F582E5833AF583E49322D0
:00000001FF
