:03000000020003F8
:0C000300787FE4F6D8FD75811A02004AEF
:1001110010083F065B4F666D7D077F6F777C395E08
:020121007971F2
:1000C300EF14FF7480A807088002C313D8FCF4F56B
:1000D3008074082DF8E6F5907F017E001200FDE4A0
:0300E300F5902273
:10008F008C198D1AAB07EB141392A0EB24FFFFE42E
:10009F0034FFC313EF13FF1392A1EFC31324FF9287
:1000AF00A27408251AF8E6F5907F017E001200FD74
:0400BF00E4F59022B2
:1000E600751801E518FD7C00FF12008F0518E5184C
:0700F600D3940840EE80E9FD
:1000FD00EF1F70011E144E600A7D027CEEDCFEDDEA
:03010D00FC80ED86
:0101100022CC
:10000F000200E6E493A3F8E493A34003F68001F221
:10001F0008DFF48029E493A3F85407240CC8C333F2
:10002F00C4540F4420C8834004F456800146F6DFC1
:10003F00E4800B0102040810204080900111E47E3F
:10004F00019360BCA3FF543F30E509541FFEE493B6
:10005F00A360010ECF54C025E060A840B8E493A37D
:10006F00FAE493A3F8E493A3C8C582C8CAC583CAA8
:10007F00F0A3C8C582C8CAC583CADFE9DEE780BE60
:0101230000DB
:00000001FF
